{
  "_format": "hh-sol-artifact-1",
  "contractName": "DisasterDonation",
  "sourceName": "contracts/DisasterDonation.sol",
  "abi": [
    {
      "inputs": [],
      "stateMutability": "nonpayable",
      "type": "constructor"
    },
    {
      "anonymous": false,
      "inputs": [
        {
          "indexed": true,
          "internalType": "address",
          "name": "admin",
          "type": "address"
        }
      ],
      "name": "AdminAdded",
      "type": "event"
    },
    {
      "anonymous": false,
      "inputs": [
        {
          "indexed": true,
          "internalType": "address",
          "name": "admin",
          "type": "address"
        }
      ],
      "name": "AdminRemoved",
      "type": "event"
    },
    {
      "anonymous": false,
      "inputs": [
        {
          "indexed": true,
          "internalType": "uint256",
          "name": "id",
          "type": "uint256"
        },
        {
          "indexed": false,
          "internalType": "string",
          "name": "name",
          "type": "string"
        },
        {
          "indexed": false,
          "internalType": "uint256",
          "name": "target",
          "type": "uint256"
        }
      ],
      "name": "CampaignCreated",
      "type": "event"
    },
    {
      "anonymous": false,
      "inputs": [
        {
          "indexed": true,
          "internalType": "uint256",
          "name": "id",
          "type": "uint256"
        },
        {
          "indexed": false,
          "internalType": "uint256",
          "name": "campaignId",
          "type": "uint256"
        },
        {
          "indexed": false,
          "internalType": "uint256",
          "name": "amount",
          "type": "uint256"
        }
      ],
      "name": "DisbursementRequested",
      "type": "event"
    },
    {
      "anonymous": false,
      "inputs": [
        {
          "indexed": true,
          "internalType": "uint256",
          "name": "campaignId",
          "type": "uint256"
        },
        {
          "indexed": false,
          "internalType": "address",
          "name": "donor",
          "type": "address"
        },
        {
          "indexed": false,
          "internalType": "uint256",
          "name": "amount",
          "type": "uint256"
        }
      ],
      "name": "DonationReceived",
      "type": "event"
    },
    {
      "anonymous": false,
      "inputs": [
        {
          "indexed": true,
          "internalType": "uint256",
          "name": "disbursementId",
          "type": "uint256"
        },
        {
          "indexed": false,
          "internalType": "address",
          "name": "receiver",
          "type": "address"
        },
        {
          "indexed": false,
          "internalType": "uint256",
          "name": "amount",
          "type": "uint256"
        }
      ],
      "name": "FundsReleased",
      "type": "event"
    },
    {
      "inputs": [
        {
          "internalType": "address",
          "name": "_admin",
          "type": "address"
        }
      ],
      "name": "addAdmin",
      "outputs": [],
      "stateMutability": "nonpayable",
      "type": "function"
    },
    {
      "inputs": [
        {
          "internalType": "uint256",
          "name": "",
          "type": "uint256"
        }
      ],
      "name": "adminList",
      "outputs": [
        {
          "internalType": "address",
          "name": "",
          "type": "address"
        }
      ],
      "stateMutability": "view",
      "type": "function"
    },
    {
      "inputs": [
        {
          "internalType": "address",
          "name": "",
          "type": "address"
        }
      ],
      "name": "admins",
      "outputs": [
        {
          "internalType": "bool",
          "name": "",
          "type": "bool"
        }
      ],
      "stateMutability": "view",
      "type": "function"
    },
    {
      "inputs": [
        {
          "internalType": "uint256",
          "name": "_disbursementId",
          "type": "uint256"
        }
      ],
      "name": "approveDisbursement",
      "outputs": [],
      "stateMutability": "nonpayable",
      "type": "function"
    },
    {
      "inputs": [],
      "name": "campaignCount",
      "outputs": [
        {
          "internalType": "uint256",
          "name": "",
          "type": "uint256"
        }
      ],
      "stateMutability": "view",
      "type": "function"
    },
    {
      "inputs": [
        {
          "internalType": "uint256",
          "name": "",
          "type": "uint256"
        },
        {
          "internalType": "uint256",
          "name": "",
          "type": "uint256"
        }
      ],
      "name": "campaignDonations",
      "outputs": [
        {
          "internalType": "address",
          "name": "donor",
          "type": "address"
        },
        {
          "internalType": "uint256",
          "name": "amount",
          "type": "uint256"
        },
        {
          "internalType": "uint256",
          "name": "timestamp",
          "type": "uint256"
        },
        {
          "internalType": "uint256",
          "name": "campaignId",
          "type": "uint256"
        },
        {
          "internalType": "string",
          "name": "notes",
          "type": "string"
        }
      ],
      "stateMutability": "view",
      "type": "function"
    },
    {
      "inputs": [
        {
          "internalType": "uint256",
          "name": "",
          "type": "uint256"
        }
      ],
      "name": "campaigns",
      "outputs": [
        {
          "internalType": "uint256",
          "name": "id",
          "type": "uint256"
        },
        {
          "internalType": "string",
          "name": "name",
          "type": "string"
        },
        {
          "internalType": "string",
          "name": "location",
          "type": "string"
        },
        {
          "internalType": "string",
          "name": "description",
          "type": "string"
        },
        {
          "internalType": "uint256",
          "name": "target",
          "type": "uint256"
        },
        {
          "internalType": "uint256",
          "name": "raised",
          "type": "uint256"
        },
        {
          "internalType": "uint256",
          "name": "startDate",
          "type": "uint256"
        },
        {
          "internalType": "uint256",
          "name": "endDate",
          "type": "uint256"
        },
        {
          "internalType": "bool",
          "name": "active",
          "type": "bool"
        },
        {
          "internalType": "address",
          "name": "admin",
          "type": "address"
        }
      ],
      "stateMutability": "view",
      "type": "function"
    },
    {
      "inputs": [
        {
          "internalType": "string",
          "name": "_name",
          "type": "string"
        },
        {
          "internalType": "string",
          "name": "_location",
          "type": "string"
        },
        {
          "internalType": "string",
          "name": "_description",
          "type": "string"
        },
        {
          "internalType": "uint256",
          "name": "_target",
          "type": "uint256"
        },
        {
          "internalType": "uint256",
          "name": "_durationDays",
          "type": "uint256"
        }
      ],
      "name": "createCampaign",
      "outputs": [],
      "stateMutability": "nonpayable",
      "type": "function"
    },
    {
      "inputs": [
        {
          "internalType": "uint256",
          "name": "",
          "type": "uint256"
        },
        {
          "internalType": "address",
          "name": "",
          "type": "address"
        }
      ],
      "name": "disbursementApprovals",
      "outputs": [
        {
          "internalType": "bool",
          "name": "",
          "type": "bool"
        }
      ],
      "stateMutability": "view",
      "type": "function"
    },
    {
      "inputs": [],
      "name": "disbursementCount",
      "outputs": [
        {
          "internalType": "uint256",
          "name": "",
          "type": "uint256"
        }
      ],
      "stateMutability": "view",
      "type": "function"
    },
    {
      "inputs": [
        {
          "internalType": "uint256",
          "name": "_campaignId",
          "type": "uint256"
        }
      ],
      "name": "donate",
      "outputs": [],
      "stateMutability": "payable",
      "type": "function"
    },
    {
      "inputs": [
        {
          "internalType": "uint256",
          "name": "_campaignId",
          "type": "uint256"
        },
        {
          "internalType": "string",
          "name": "_notes",
          "type": "string"
        }
      ],
      "name": "donateWithNote",
      "outputs": [],
      "stateMutability": "payable",
      "type": "function"
    },
    {
      "inputs": [],
      "name": "getAdminCount",
      "outputs": [
        {
          "internalType": "uint256",
          "name": "",
          "type": "uint256"
        }
      ],
      "stateMutability": "view",
      "type": "function"
    },
    {
      "inputs": [],
      "name": "getAdmins",
      "outputs": [
        {
          "internalType": "address[]",
          "name": "",
          "type": "address[]"
        }
      ],
      "stateMutability": "view",
      "type": "function"
    },
    {
      "inputs": [
        {
          "internalType": "uint256",
          "name": "_campaignId",
          "type": "uint256"
        }
      ],
      "name": "getCampaign",
      "outputs": [
        {
          "internalType": "uint256",
          "name": "id",
          "type": "uint256"
        },
        {
          "internalType": "string",
          "name": "name",
          "type": "string"
        },
        {
          "internalType": "string",
          "name": "location",
          "type": "string"
        },
        {
          "internalType": "string",
          "name": "description",
          "type": "string"
        },
        {
          "internalType": "uint256",
          "name": "target",
          "type": "uint256"
        },
        {
          "internalType": "uint256",
          "name": "raised",
          "type": "uint256"
        },
        {
          "internalType": "uint256",
          "name": "startDate",
          "type": "uint256"
        },
        {
          "internalType": "uint256",
          "name": "endDate",
          "type": "uint256"
        },
        {
          "internalType": "bool",
          "name": "active",
          "type": "bool"
        }
      ],
      "stateMutability": "view",
      "type": "function"
    },
    {
      "inputs": [
        {
          "internalType": "uint256",
          "name": "_disbursementId",
          "type": "uint256"
        }
      ],
      "name": "getDisbursement",
      "outputs": [
        {
          "internalType": "uint256",
          "name": "id",
          "type": "uint256"
        },
        {
          "internalType": "uint256",
          "name": "campaignId",
          "type": "uint256"
        },
        {
          "internalType": "address",
          "name": "receiver",
          "type": "address"
        },
        {
          "internalType": "uint256",
          "name": "amount",
          "type": "uint256"
        },
        {
          "internalType": "string",
          "name": "purpose",
          "type": "string"
        },
        {
          "internalType": "uint256",
          "name": "timestamp",
          "type": "uint256"
        },
        {
          "internalType": "bool",
          "name": "approved",
          "type": "bool"
        },
        {
          "internalType": "uint256",
          "name": "approveCount",
          "type": "uint256"
        }
      ],
      "stateMutability": "view",
      "type": "function"
    },
    {
      "inputs": [
        {
          "internalType": "uint256",
          "name": "_campaignId",
          "type": "uint256"
        }
      ],
      "name": "getDonations",
      "outputs": [
        {
          "components": [
            {
              "internalType": "address",
              "name": "donor",
              "type": "address"
            },
            {
              "internalType": "uint256",
              "name": "amount",
              "type": "uint256"
            },
            {
              "internalType": "uint256",
              "name": "timestamp",
              "type": "uint256"
            },
            {
              "internalType": "uint256",
              "name": "campaignId",
              "type": "uint256"
            },
            {
              "internalType": "string",
              "name": "notes",
              "type": "string"
            }
          ],
          "internalType": "struct DisasterDonation.Donation[]",
          "name": "",
          "type": "tuple[]"
        }
      ],
      "stateMutability": "view",
      "type": "function"
    },
    {
      "inputs": [
        {
          "internalType": "uint256",
          "name": "_campaignId",
          "type": "uint256"
        }
      ],
      "name": "getDonationsCount",
      "outputs": [
        {
          "internalType": "uint256",
          "name": "",
          "type": "uint256"
        }
      ],
      "stateMutability": "view",
      "type": "function"
    },
    {
      "inputs": [
        {
          "internalType": "uint256",
          "name": "_campaignId",
          "type": "uint256"
        }
      ],
      "name": "getTotalRaised",
      "outputs": [
        {
          "internalType": "uint256",
          "name": "",
          "type": "uint256"
        }
      ],
      "stateMutability": "view",
      "type": "function"
    },
    {
      "inputs": [
        {
          "internalType": "address",
          "name": "_admin",
          "type": "address"
        }
      ],
      "name": "removeAdmin",
      "outputs": [],
      "stateMutability": "nonpayable",
      "type": "function"
    },
    {
      "inputs": [
        {
          "internalType": "uint256",
          "name": "_campaignId",
          "type": "uint256"
        },
        {
          "internalType": "address",
          "name": "_receiver",
          "type": "address"
        },
        {
          "internalType": "uint256",
          "name": "_amount",
          "type": "uint256"
        },
        {
          "internalType": "string",
          "name": "_purpose",
          "type": "string"
        }
      ],
      "name": "requestDisbursement",
      "outputs": [],
      "stateMutability": "nonpayable",
      "type": "function"
    },
    {
      "inputs": [],
      "name": "requiredApprovals",
      "outputs": [
        {
          "internalType": "uint256",
          "name": "",
          "type": "uint256"
        }
      ],
      "stateMutability": "view",
      "type": "function"
    },
    {
      "inputs": [
        {
          "internalType": "uint256",
          "name": "_required",
          "type": "uint256"
        }
      ],
      "name": "updateRequiredApprovals",
      "outputs": [],
      "stateMutability": "nonpayable",
      "type": "function"
    },
    {
      "stateMutability": "payable",
      "type": "receive"
    }
  ],
  "bytecode": "0x6080604052600260085534801561001557600080fd5b5033600081815260046020526040808220805460ff1916600190811790915560078054918201815583527fa66cc928b5edb82af9bd49922954155ab7b0942694bea4ce44661d9a8736c6880180546001600160a01b03191684179055517f44d6d25963f097ad14f29f06854a01f575648a1ef82f30e562ccd3889717e3399190a2612342806100a56000396000f3fe6080604052600436106101445760003560e01c80637274e30d116100b6578063a9bc10701161006f578063a9bc107014610422578063ab49ed5714610442578063bb17a62914610472578063c033e6f4146104ad578063d6833693146104cd578063f14faf6f1461050157600080fd5b80637274e30d146103985780637a1b2f78146103ae5780638b7bf3eb146103c4578063980f2e66146103d957806399c1aadc146103f9578063a7f6ca591461040f57600080fd5b8063429b62e511610108578063429b62e51461026a5780635598f8cc146102aa578063596d9ce2146102df578063683d6e581461030c578063704802751461034757806370879ff71461036757600080fd5b806311117fc814610193578063141961bc146101d05780631785f53c1461020657806331ae450b1461022857806337d7f2db1461024a57600080fd5b3661018e5760405162461bcd60e51b81526020600482015260156024820152742ab9b2903237b730ba32941490333ab731ba34b7b760591b60448201526064015b60405180910390fd5b600080fd5b34801561019f57600080fd5b506101b36101ae366004611b62565b610514565b6040516001600160a01b0390911681526020015b60405180910390f35b3480156101dc57600080fd5b506101f06101eb366004611b62565b61053e565b6040516101c79a99989796959493929190611bc1565b34801561021257600080fd5b50610226610221366004611c61565b610732565b005b34801561023457600080fd5b5061023d610955565b6040516101c79190611c83565b34801561025657600080fd5b50610226610265366004611b62565b6109b7565b34801561027657600080fd5b5061029a610285366004611c61565b60046020526000908152604090205460ff1681565b60405190151581526020016101c7565b3480156102b657600080fd5b506102ca6102c5366004611b62565b610a3a565b6040516101c799989796959493929190611cd0565b3480156102eb57600080fd5b506102ff6102fa366004611b62565b610c59565b6040516101c79190611d42565b34801561031857600080fd5b50610339610327366004611b62565b60009081526001602052604090205490565b6040519081526020016101c7565b34801561035357600080fd5b50610226610362366004611c61565b610d92565b34801561037357600080fd5b50610387610382366004611de0565b610ea9565b6040516101c7959493929190611e02565b3480156103a457600080fd5b5061033960055481565b3480156103ba57600080fd5b5061033960065481565b3480156103d057600080fd5b50600754610339565b3480156103e557600080fd5b506102266103f4366004611ee3565b610f8f565b34801561040557600080fd5b5061033960085481565b61022661041d366004611f7d565b6111c7565b34801561042e57600080fd5b5061022661043d366004611fc4565b6113ef565b34801561044e57600080fd5b5061033961045d366004611b62565b60009081526020819052604090206005015490565b34801561047e57600080fd5b5061029a61048d366004612025565b600360209081526000928352604080842090915290825290205460ff1681565b3480156104b957600080fd5b506102266104c8366004611b62565b6115b9565b3480156104d957600080fd5b506104ed6104e8366004611b62565b61181f565b6040516101c7989796959493929190612051565b61022661050f366004611b62565b611931565b6007818154811061052457600080fd5b6000918252602090912001546001600160a01b0316905081565b60006020819052908152604090208054600182018054919291610560906120a6565b80601f016020809104026020016040519081016040528092919081815260200182805461058c906120a6565b80156105d95780601f106105ae576101008083540402835291602001916105d9565b820191906000526020600020905b8154815290600101906020018083116105bc57829003601f168201915b5050505050908060020180546105ee906120a6565b80601f016020809104026020016040519081016040528092919081815260200182805461061a906120a6565b80156106675780601f1061063c57610100808354040283529160200191610667565b820191906000526020600020905b81548152906001019060200180831161064a57829003601f168201915b50505050509080600301805461067c906120a6565b80601f01602080910402602001604051908101604052809291908181526020018280546106a8906120a6565b80156106f55780601f106106ca576101008083540402835291602001916106f5565b820191906000526020600020905b8154815290600101906020018083116106d857829003601f168201915b505050600484015460058501546006860154600787015460089097015495969295919450925060ff8116906001600160a01b03610100909104168a565b3360009081526004602052604090205460ff166107615760405162461bcd60e51b8152600401610185906120e0565b6001600160a01b03811660009081526004602052604090205460ff166107995760405162461bcd60e51b8152600401610185906120e0565b600854600754116107f75760405162461bcd60e51b815260206004820152602260248201527f43616e6e6f742072656d6f76652c206e656564206d696e696d756d2061646d696044820152616e7360f01b6064820152608401610185565b6001600160a01b0381166000908152600460205260408120805460ff191690555b60075481101561091d57816001600160a01b03166007828154811061083f5761083f612106565b6000918252602090912001546001600160a01b03160361090b576007805461086990600190612132565b8154811061087957610879612106565b600091825260209091200154600780546001600160a01b0390921691839081106108a5576108a5612106565b9060005260206000200160006101000a8154816001600160a01b0302191690836001600160a01b0316021790555060078054806108e4576108e461214b565b600082815260209020810160001990810180546001600160a01b031916905501905561091d565b8061091581612161565b915050610818565b506040516001600160a01b038216907fa3b62bc36326052d97ea62d63c3d60308ed4c3ea8ac079dd8499f1e9c4f80c0f90600090a250565b606060078054806020026020016040519081016040528092919081815260200182805480156109ad57602002820191906000526020600020905b81546001600160a01b0316815260019091019060200180831161098f575b5050505050905090565b3360009081526004602052604090205460ff166109e65760405162461bcd60e51b8152600401610185906120e0565b6000811180156109f857506007548111155b610a355760405162461bcd60e51b815260206004820152600e60248201526d24b73b30b634b210373ab6b132b960911b6044820152606401610185565b600855565b600060608060606000806000806000806000808c81526020019081526020016000209050806000015481600101826002018360030184600401548560050154866006015487600701548860080160009054906101000a900460ff16878054610aa1906120a6565b80601f0160208091040260200160405190810160405280929190818152602001828054610acd906120a6565b8015610b1a5780601f10610aef57610100808354040283529160200191610b1a565b820191906000526020600020905b815481529060010190602001808311610afd57829003601f168201915b50505050509750868054610b2d906120a6565b80601f0160208091040260200160405190810160405280929190818152602001828054610b59906120a6565b8015610ba65780601f10610b7b57610100808354040283529160200191610ba6565b820191906000526020600020905b815481529060010190602001808311610b8957829003601f168201915b50505050509650858054610bb9906120a6565b80601f0160208091040260200160405190810160405280929190818152602001828054610be5906120a6565b8015610c325780601f10610c0757610100808354040283529160200191610c32565b820191906000526020600020905b815481529060010190602001808311610c1557829003601f168201915b50505050509550995099509950995099509950995099509950509193959799909294969850565b606060016000838152602001908152602001600020805480602002602001604051908101604052809291908181526020016000905b82821015610d875760008481526020908190206040805160a0810182526005860290920180546001600160a01b0316835260018101549383019390935260028301549082015260038201546060820152600482018054919291608084019190610cf6906120a6565b80601f0160208091040260200160405190810160405280929190818152602001828054610d22906120a6565b8015610d6f5780601f10610d4457610100808354040283529160200191610d6f565b820191906000526020600020905b815481529060010190602001808311610d5257829003601f168201915b50505050508152505081526020019060010190610c8e565b505050509050919050565b3360009081526004602052604090205460ff16610dc15760405162461bcd60e51b8152600401610185906120e0565b6001600160a01b03811660009081526004602052604090205460ff1615610e1d5760405162461bcd60e51b815260206004820152601060248201526f20b63932b0b23c9030b71030b236b4b760811b6044820152606401610185565b6001600160a01b038116600081815260046020526040808220805460ff1916600190811790915560078054918201815583527fa66cc928b5edb82af9bd49922954155ab7b0942694bea4ce44661d9a8736c6880180546001600160a01b03191684179055517f44d6d25963f097ad14f29f06854a01f575648a1ef82f30e562ccd3889717e3399190a250565b60016020528160005260406000208181548110610ec557600080fd5b6000918252602090912060059091020180546001820154600283015460038401546004850180546001600160a01b03909516975092955090939092909190610f0c906120a6565b80601f0160208091040260200160405190810160405280929190818152602001828054610f38906120a6565b8015610f855780601f10610f5a57610100808354040283529160200191610f85565b820191906000526020600020905b815481529060010190602001808311610f6857829003601f168201915b5050505050905085565b3360009081526004602052604090205460ff16610fbe5760405162461bcd60e51b8152600401610185906120e0565b600082116110035760405162461bcd60e51b81526020600482015260126024820152710546172676574206d757374206265203e20360741b6044820152606401610185565b6000811161104a5760405162461bcd60e51b815260206004820152601460248201527304475726174696f6e206d757374206265203e20360641b6044820152606401610185565b6005805490600061105a83612161565b919050555060405180610140016040528060055481526020018681526020018581526020018481526020018381526020016000815260200142815260200182620151806110a7919061217a565b6110b19042612191565b815260016020808301829052336040938401526005546000908152808252929092208351815591830151908201906110e990826121f3565b50604082015160028201906110fe90826121f3565b506060820151600382019061111390826121f3565b506080820151600482015560a082015160058083019190915560c0830151600683015560e083015160078301556101008084015160089093018054610120909501516001600160a81b0319909516931515610100600160a81b031916939093176001600160a01b0390941602929092179055546040517f2170fee8e65b01596ec56f4b4df98e903e2baf55bb74a163480d31de5ce83025906111b890889086906122b3565b60405180910390a25050505050565b816000811180156111da57506005548111155b6111f65760405162461bcd60e51b8152600401610185906122d5565b600083815260208190526040902060080154839060ff1661124f5760405162461bcd60e51b815260206004820152601360248201527243616d706169676e206e6f742061637469766560681b6044820152606401610185565b6000818152602081905260409020600701544211156112a15760405162461bcd60e51b815260206004820152600e60248201526d10d85b5c185a59db88195b99195960921b6044820152606401610185565b600034116112f15760405162461bcd60e51b815260206004820152601b60248201527f446f6e6174696f6e20616d6f756e74206d757374206265203e203000000000006044820152606401610185565b60008481526020819052604081206005018054349290611312908490612191565b90915550506000848152600160208181526040808420815160a0810183523381523481850190815242938201938452606082018b8152608083018b81528454808901865594895295909720825160059094020180546001600160a01b0319166001600160a01b03909416939093178355519482019490945590516002820155925160038401555190919060048201906113ab90826121f3565b5050604080513381523460208201528692507f0b5b4c52969ff7329ecf7ee536409fda87812b15a8622bc6e8cdeab3aee14a2691015b60405180910390a250505050565b3360009081526004602052604090205460ff1661141e5760405162461bcd60e51b8152600401610185906120e0565b8360008111801561143157506005548111155b61144d5760405162461bcd60e51b8152600401610185906122d5565b6000858152602081905260409020600501548311156114a35760405162461bcd60e51b8152602060048201526012602482015271496e73756666696369656e742066756e647360701b6044820152606401610185565b6001600160a01b0384166114f95760405162461bcd60e51b815260206004820152601860248201527f496e76616c6964207265636569766572206164647265737300000000000000006044820152606401610185565b6006805490600061150983612161565b9091555050600654600081815260026020819052604090912091825560018201879055810180546001600160a01b0319166001600160a01b038716179055600381018490556004810161155c84826121f3565b504260058201556006808201805460ff19169055600060078301555460408051888152602081018790527f93269e8c6bb3c7f992b34e4ead5f874b0f83402341e6f48f314b64aa883b8e2d910160405180910390a2505050505050565b3360009081526004602052604090205460ff166115e85760405162461bcd60e51b8152600401610185906120e0565b6000818152600260205260409020600681015460ff161561163e5760405162461bcd60e51b815260206004820152601060248201526f105b1c9958591e48185c1c1c9bdd995960821b6044820152606401610185565b600082815260036020908152604080832033845290915290205460ff16156116a85760405162461bcd60e51b815260206004820152601e60248201527f416c726561647920617070726f76656420627920746869732061646d696e00006044820152606401610185565b60008281526003602090815260408083203384529091528120805460ff19166001179055600782018054916116dc83612161565b919050555060085481600701541061181b5760068101805460ff19166001908117909155810154600090815260208190526040812060038301546005820180549293919290919061172e908490612132565b9091555050600282015460038301546040516000926001600160a01b031691908381818185875af1925050503d8060008114611786576040519150601f19603f3d011682016040523d82523d6000602084013e61178b565b606091505b50509050806117ce5760405162461bcd60e51b815260206004820152600f60248201526e151c985b9cd9995c8819985a5b1959608a1b6044820152606401610185565b60028301546003840154604080516001600160a01b039093168352602083019190915285917f6e3c6096795c8298a218b2cfb8bde42726ff7c9a3d27b4d3ba41ab7f74feb5fb91016113e1565b5050565b6000806000806060600080600080600260008b81526020019081526020016000209050806000015481600101548260020160009054906101000a90046001600160a01b031683600301548460040185600501548660060160009054906101000a900460ff168760070154838054611895906120a6565b80601f01602080910402602001604051908101604052809291908181526020018280546118c1906120a6565b801561190e5780601f106118e35761010080835404028352916020019161190e565b820191906000526020600020905b8154815290600101906020018083116118f157829003601f168201915b505050505093509850985098509850985098509850985050919395975091939597565b8060008111801561194457506005548111155b6119605760405162461bcd60e51b8152600401610185906122d5565b600082815260208190526040902060080154829060ff166119b95760405162461bcd60e51b815260206004820152601360248201527243616d706169676e206e6f742061637469766560681b6044820152606401610185565b600081815260208190526040902060070154421115611a0b5760405162461bcd60e51b815260206004820152600e60248201526d10d85b5c185a59db88195b99195960921b6044820152606401610185565b60003411611a5b5760405162461bcd60e51b815260206004820152601b60248201527f446f6e6174696f6e20616d6f756e74206d757374206265203e203000000000006044820152606401610185565b60008381526020819052604081206005018054349290611a7c908490612191565b90915550506000838152600160208181526040808420815160a0810183523381523481850190815242828501908152606083018b81528551808801909652888652608084019586528454808901865594895295909720825160059094020180546001600160a01b0319166001600160a01b0390941693909317835551948201949094559351600285015590516003840155519091906004820190611b2090826121f3565b5050604080513381523460208201528592507f0b5b4c52969ff7329ecf7ee536409fda87812b15a8622bc6e8cdeab3aee14a26910160405180910390a2505050565b600060208284031215611b7457600080fd5b5035919050565b6000815180845260005b81811015611ba157602081850181015186830182015201611b85565b506000602082860101526020601f19601f83011685010191505092915050565b60006101408c8352806020840152611bdb8184018d611b7b565b90508281036040840152611bef818c611b7b565b90508281036060840152611c03818b611b7b565b6080840199909952505060a081019590955260c085019390935260e084019190915215156101008301526001600160a01b031661012090910152949350505050565b80356001600160a01b0381168114611c5c57600080fd5b919050565b600060208284031215611c7357600080fd5b611c7c82611c45565b9392505050565b6020808252825182820181905260009190848201906040850190845b81811015611cc45783516001600160a01b031683529284019291840191600101611c9f565b50909695505050505050565b60006101208b8352806020840152611cea8184018c611b7b565b90508281036040840152611cfe818b611b7b565b90508281036060840152611d12818a611b7b565b6080840198909852505060a081019490945260c084019290925260e0830152151561010090910152949350505050565b60006020808301818452808551808352604092508286019150828160051b87010184880160005b83811015611dd257888303603f19018552815180516001600160a01b03168452878101518885015286810151878501526060808201519085015260809081015160a091850182905290611dbe81860183611b7b565b968901969450505090860190600101611d69565b509098975050505050505050565b60008060408385031215611df357600080fd5b50508035926020909101359150565b60018060a01b038616815284602082015283604082015282606082015260a060808201526000611e3560a0830184611b7b565b979650505050505050565b634e487b7160e01b600052604160045260246000fd5b600082601f830112611e6757600080fd5b813567ffffffffffffffff80821115611e8257611e82611e40565b604051601f8301601f19908116603f01168101908282118183101715611eaa57611eaa611e40565b81604052838152866020858801011115611ec357600080fd5b836020870160208301376000602085830101528094505050505092915050565b600080600080600060a08688031215611efb57600080fd5b853567ffffffffffffffff80821115611f1357600080fd5b611f1f89838a01611e56565b96506020880135915080821115611f3557600080fd5b611f4189838a01611e56565b95506040880135915080821115611f5757600080fd5b50611f6488828901611e56565b9598949750949560608101359550608001359392505050565b60008060408385031215611f9057600080fd5b82359150602083013567ffffffffffffffff811115611fae57600080fd5b611fba85828601611e56565b9150509250929050565b60008060008060808587031215611fda57600080fd5b84359350611fea60208601611c45565b925060408501359150606085013567ffffffffffffffff81111561200d57600080fd5b61201987828801611e56565b91505092959194509250565b6000806040838503121561203857600080fd5b8235915061204860208401611c45565b90509250929050565b60006101008a835289602084015260018060a01b038916604084015287606084015280608084015261208581840188611b7b565b60a0840196909652505091151560c083015260e09091015295945050505050565b600181811c908216806120ba57607f821691505b6020821081036120da57634e487b7160e01b600052602260045260246000fd5b50919050565b6020808252600c908201526b2737ba1030b71030b236b4b760a11b604082015260600190565b634e487b7160e01b600052603260045260246000fd5b634e487b7160e01b600052601160045260246000fd5b818103818111156121455761214561211c565b92915050565b634e487b7160e01b600052603160045260246000fd5b6000600182016121735761217361211c565b5060010190565b80820281158282048414176121455761214561211c565b808201808211156121455761214561211c565b601f8211156121ee57600081815260208120601f850160051c810160208610156121cb5750805b601f850160051c820191505b818110156121ea578281556001016121d7565b5050505b505050565b815167ffffffffffffffff81111561220d5761220d611e40565b6122218161221b84546120a6565b846121a4565b602080601f831160018114612256576000841561223e5750858301515b600019600386901b1c1916600185901b1785556121ea565b600085815260208120601f198616915b8281101561228557888601518255948401946001909101908401612266565b50858210156122a35787850151600019600388901b60f8161c191681555b5050505050600190811b01905550565b6040815260006122c66040830185611b7b565b90508260208301529392505050565b60208082526017908201527f43616d706169676e20646f6573206e6f7420657869737400000000000000000060408201526060019056fea2646970667358221220c300611a4faba536afc2b71ab7d8237c5085ae57dbb1406c747773c9ef38235164736f6c63430008130033",
  "linkReferences": {},
  "deployedLinkReferences": {}
}